:020000040800F2
:10000000700A002001010008F9190008E512000833
:100010004D1400080D0E0008A52700080000000080
:100020000000000000000000000000001323000892
:10003000950F00080000000029200008FD2300089B
:100040001B0100081B0100081B01000829220008F1
:100050001B0100081B0100081B0100081B01000810
:100060001B0100081B010008D90F00081B01000834
:100070001B0100081B0100081B0100081B010008F0
:100080001B0100081B0100081B0100081B010008E0
:100090001B0100081B0100081B0100081B010008D0
:1000A0001B0100081B0100081B0100081B010008C0
:1000B0001B0100081B0100081B0100081B010008B0
:1000C0001B0100081B0100081B0100081B010008A0
:1000D0001B0100081B0100081B010008B1250008D6
:1000E0001B010008B12100081B010008DFF80CD03B
:1000F00000F036FE004800476D360008700A002008
:100100000648804706480047FEE7FEE7FEE7FEE7B1
:10011000FEE7FEE7FEE7FEE7FEE7FEE781240008D4
:10012000ED000008A0F14101192900D820307047E6
:10013000004870471C59000840EA01039B0703D0A0
:1001400009E008C9121F08C0042AFAD203E011F816
:10015000013B00F8013B521EF9D27047D2B201E0D8
:1001600000F8012B491EFBD270470022F6E710B5BC
:1001700013460A4604461946FFF7F0FF204610BD15
:10018000421C10F8011B0029FBD1801A704710B5E2
:10019000002200E0521C835C8C5CA34201D1002B46
:1001A000F8D1D8B2E1B2401A10BD30B505460020F2
:1001B000034600E05B1C934205D2EC5CC85C201A4D
:1001C00001D1002CF6D130BD2DE9FF4F087883B066
:1001D0009946FF2805D0491C2D2804D00024002072
:1001E00008E000200BE00124F9E700EB800003EBBE
:1001F0004000491C0B78FF2BF7D104B1404200238B
:100200000293147819461D462D2C01D02B2C04D1B5
:10021000521C2D2C13D000240294AA461478FF2CD3
:100220000FD00A25A3FB057801FB05814FF0000CD8
:1002300003FB0C11521CE3194AEB0101EEE7012408
:10024000EAE7814453EA010002D019F5C87F06DAD3
:1002500003980021C0E9001107B0BDE8F08F002528
:10026000AE4E2F46DFF8B882184600F055FDCDE9B6
:100270000001B9F1000002DAC9F1000400E004460F
:100280000023A74A1AEB030B42EB045A12E0E007E3
:1002900007D02A4633463846414600F044FA07461E
:1002A00088462A4633461046194600F03CFA054671
:1002B0000E466410002CEAD1DDE90001B9F1000F0F
:1002C0005A46534606DA00F0A0FA3A46434600F092
:1002D0009CFA05E000F027FA3A46434600F023FA7C
:1002E000029A0AB181F00041039AC2E90001B3E722
:1002F0002DE9FF4F1F468DB0D7E901464FF0FF387B
:100300002E2045464FF000090B90B9696D1C0E98E0
:100310008847396A824688470028F6D1BAF1FF3FFC
:100320000AD024F4D064002E11DDBAF12B0F08D0CE
:10033000BAF12D0F0BD102E0404611B08DE744F425
:100340008064B9696D1C0E9888478246761E69469E
:10035000600501D52D2000E02B208DF8000001F173
:10036000010B0DF1200809E0B9696D1C0E98884752
:1003700082460F9844F40074761E0560002E02DD5C
:10038000BAF1300FF0D00B998A453ED144F0800489
:1003900006E00F99681CA9F1010944F40074086093
:1003A000B9696D1C761E0E98884782463028F0D0B9
:1003B0002BE00B998A4505D1200603D444F0800434
:1003C000761E18E0504602F027FB08B30DF113012A
:1003D000761E44F400748B4508D2AAF130000BF865
:1003E000010B200607D5A9F1010003E0200602D485
:1003F00009F101008146A00502D50F99681C08602B
:10040000B9696D1C0E9888478246002ED1DC53E0F6
:10041000002E51DDBAF1650F02D0BAF1450F4BD174
:10042000A00549D5B9696D1C24F44074761E0E9858
:1004300088478246002E0CDD2B2804D0BAF12D0F00
:1004400007D144F48074B9696D1C0E9888478246C0
:10045000761EE00501D52D2100E02B2108F8011BB7
:10046000CDF82C8021E00DF12901761E44F40074B2
:1004700088450CD2AAF1300010F0FF0088F8000087
:1004800002D10B99884509D908F1010806E0E00579
:1004900001D5244801E042F20F708146B9696D1C14
:1004A0000E98884782460F980560002E04DD50465E
:1004B00002F0B2FA0028D6D1F9690E988847FF20D9
:1004C0008BF8000088F800000020069007904B464B
:1004D0006A4608A906A8FFF777FEA00502D46FF0C8
:1004E00001002AE714F0240F0AD0E00714D1DDE957
:1004F00006123868031D3B600068C0E900120BE07B
:10050000DDE9060100F072FA0146E00704D138681F
:10051000021D3A600068016028460EE700001440A2
:100520000000F03FF1D8FFFFF0B480EA0102D40FE1
:100530004200B2EB410F02D20246084611464A0081
:1005400042D0C30DDDB2C1F3C752AD1A202D35DA4A
:10055000C1F3160141F4000204B15242C5F1200674
:1005600002FA06F12A411044B3EBD05F23D0C4B1A4
:10057000012DA0EBC35009DCF0BC4FF0004202EAB1
:10058000C352DBB200F5000000F03BBB400000F1BD
:10059000807000EBC350A0F1807040EAD170490038
:1005A00009E0490841EAC071A0EBC35000F5000022
:1005B000400800EBC350F0BC00F01ABB61420122BE
:1005C00002EB4101001BF6E7F0BC704781F00041EF
:1005D000AAE780F00040A7E72DE9FE4F804681EAB8
:1005E0000300C00F0C46009021F0004123F00045AD
:1005F000B8EB0200A94105D24046214690461C4670
:100600000B46024623F00040104347D0270DC7F3A6
:100610000A00C3F30A510290401A019040286BDA95
:10062000C3F3130040F4801B0098924620B10023CE
:10063000D2EB030A63EB0B0B01985946C0F1400261
:10064000504600F036FA06460D4650465946019A85
:1006500000F04EFA10EB08006141002487EA1152C5
:1006600084EAE7731A4340D0009A62B3019A012AE0
:100670004FEA075215DC001B61EB02014FF000420C
:1006800002EA0752CDE90042001C41F580113246D2
:100690002B4600F0F3FA03B0BDE8F08F4046214648
:1006A000F9E7001B61EB0201001C41F58013001803
:1006B0005B412018A2F5001747EB030140EAD57013
:1006C000B6196D4111E06D084FEA360645EAC0756E
:1006D0004FEA0752001B61EB0201001C41F580113B
:1006E00049084FEA30000019514132462B4603B009
:1006F000BDE8F04F00F0B3BA00980122400000239B
:10070000D0EB020263EBE073009821464FEAE074FD
:10071000B8EB000061EB0401E9E783F000435BE71D
:1007200081F0004158E72DE9FE4F81EA030404F00F
:10073000004421F0004100944FF0000B23F00043EF
:1007400050EA01045ED052EA03045BD0C3F30A54BA
:10075000C1F30A552C44A4F2F3340194A0FB0254D3
:10076000C1F3130141F48011C3F3130343F4801365
:1007700001FB024400FB034E840A970A44EA8154B9
:1007800047EA8357A4FB076802958D0A05FB078596
:100790004FEA932C04FB0C542705029D4FEA0658A0
:1007A00047EA1637B5EB08056EEB070C870E920E7D
:1007B00047EA811742EA8312A7FB0201B6EB0B015D
:1007C00064EB00042B0D43EA0C335E1844EB1C5021
:1007D000DA465146E7FB0201C5F313044FEA0B3337
:1007E00043EA14534FEA0432019C43EA0603A4F19E
:1007F0000C040294009CCDE900B400F03FFA03B071
:10080000BDE8F08F00200146F9E72DE9F04D81EABF
:10081000030404F0004B21F0004514464FF0000A99
:1008200023F0004150EA050220D054EA01021DD015
:10083000C5F30A570246C5F31303C1F31300C1F30E
:100840000A5640F4801543F48013A7EB0608101BEA
:10085000D64608F2FD3873EB050002D308F1010813
:1008600001E092185B41B8F1000F03DA0020014665
:10087000BDE8F08D00204FF48011064684460EE05E
:10088000171B73EB050705D3121B63EB0503064328
:100890004CEA010C49084FEA300092185B4150EADB
:1008A0000107EDD152EA030012D082EA040083EA84
:1008B0000501084305D0101BAB4106D201220023DD
:1008C00006E000224FF0004302E06FF001025310F7
:1008D0001AEB06004CEB085110EB0A0041EB0B0140
:1008E000BDE8F04D00F0BBB9C10F80EAE0700844EC
:1008F000CA079623002100F084B9962300221146EE
:1009000000F07FB90EB5C10F80EAE0700844CA0755
:10091000002140F233438DE80E000A460B4600F0FA
:10092000ADF903B000BD70B5C1F30A5201F0004546
:100930000024C1F3130140F2FF3341F480119A42C5
:1009400001DA002070BD40F233439A42A2F23342F2
:1009500003DC524200F0BCF800E090402C43F1D0A0
:10096000404270BD00F0004230F000400AD0C10D9E
:1009700001F56071C0F3160042EA0151C208400758
:1009800011437047002001467047000030B5041E37
:1009900071F1000404DB4FF00044404264EB0101BC
:1009A000141E73F1000405DB1C464FF00043524255
:1009B00063EB04038B4208BF824230BD30B5041E96
:1009C00071F1000404DB4FF00044404264EB01018C
:1009D000141E73F1000405DB1C464FF00043524225
:1009E00063EB0403994208BF904230BD01F000431D
:1009F00030B421F0004150EA010206D00A0DA2F500
:100A00006072C1F31301002A02DC30BC0020704781
:100A1000440F44EAC104C100E01830BC00EBC250EE
:100A200000F0E6B830B50B46014600202022012434
:100A300009E021FA02F59D4205D303FA02F5491BAC
:100A400004FA02F52844151EA2F10102F1DC30BDC2
:100A50002DE9F05F0546002092469B4688460646F3
:100A6000814640241BE0284641464746224600F086
:100A70002FF853465A46C01A914110D311461846D2
:100A8000224600F016F82D1A67EB01084F46224661
:100A90000120002100F00DF817EB00094E41201E47
:100AA000A4F10104DFDC484631462A464346BDE84E
:100AB000F09F202A04DB203A00FA02F10020704760
:100AC0009140C2F1200320FA03F31943904070478C
:100AD000202A04DB203A21FA02F00021704721FA93
:100AE00002F3D040C2F120029140084319467047FA
:100AF000202A06DBCB17203A41FA02F043EAE073E2
:100B000006E041FA02F3D040C2F1200291400843CE
:100B100019467047426842B1016811F8013B23B1A0
:100B2000521EC0E90012184670470121C160881E9C
:100B3000704742685AB1C368016843B983688B4201
:100B400005D0491E521CC0E90012002070474FF02A
:100B5000FF3070470FB4002300B589B00CA9009195
:100B60000B996FF00042CB601E4B06931E4B079310
:100B70000423CDE901321D4A089202466B4600204B
:100B8000FFF7B6FB09B05DF814FB70B586B00646FA
:100B90004FF0FF300091CDE90101002015460C46D1
:100BA00004903246694604A8FFF7D4FF0246049831
:100BB000211825B108B1084600E0204628600498B5
:100BC00000280DD0002A02DD0098884208D0081BBA
:100BD0000094CDE901043246694604A8FFF7BAFF44
:100BE00006B070BD150B0008330B0008850D00081A
:100BF0000029A8BF7047401C490008BF20F0010031
:100C0000704710B4B0FA80FC00FA0CF050EA01040E
:100C100004BF10BC704749B1CCF1200421FA04F4A0
:100C200011FA0CF118BF012121430843A3EB0C0179
:100C3000CB1D4FEA00614FEA102042BF002010BCDC
:100C4000704700EBC35010440029A4BF10BC70478C
:100C5000401C490008BF20F0010010BC704710B5CF
:100C6000141E73F1000408DA401C41F100019218CF
:100C70005B411A4301D120F0010010BD2DE9F04D78
:100C800092469B4611B1B1FA81F202E0B0FA80F2CD
:100C900020329046FFF70DFF04460F4640EA0A0057
:100CA00041EA0B0153465A46084313D0114653EA12
:100CB000010019D0C8F140025046FFF709FF054670
:100CC0000E46504659464246FFF7F3FE084305D00C
:100CD000012004E020463946BDE8F08D00200543A0
:100CE00046EAE0762C4337430A986305E40AA0EB12
:100CF00008000022FD0A44EA47540A3002D50020C9
:100D00000146E9E7010510196941DDE908450019C7
:100D10006941BDE8F04DA2E70EB540F233420292C0
:100D20000022CDE900221346FFF7A8FF03B000BD63
:100D3000C1F30A52C1F3130140F2FF3341F48011B1
:100D40009A4202DA00200146704740F233439A4249
:100D5000A2F2334202DC5242FFF7BABEFFF7A9BE4D
:100D6000064C074D06E0E06840F0010394E80700F8
:100D700098471034AC42F6D3FFF7BCF9E8590008A5
:100D8000085A0008C0B24FF4F05100F001B800005A
:100D90007F2801D9002208E0064A02EB5002C00772
:100DA000127800D1120902F00F0201209040084091
:100DB000704700005459000810B5012001F056F9A1
:100DC000002001F053F910BD08B50121102001F0F9
:100DD0003DF94FF40050ADF8000010208DF80300ED
:100DE00003208DF802006946014800F0E3F908BDD0
:100DF0000010014010B5FFF7E7FF4FF40051024823
:100E000000F06CFA10BD00000010014000BFFEE7CA
:100E100008B50121082001F019F98020ADF8000083
:100E200010208DF8030003208DF802006946024867
:100E300000F0C0F908BD0000000C014010B5FFF73C
:100E4000E7FF8021014800F04BFA10BD000C014083
:100E500008B58020ADF8000048208DF803006946F1
:100E6000014800F0A7F908BD000C014008B580203A
:100E7000ADF8000010208DF8030003208DF802006B
:100E80006946024800F096F908BD0000000C0140D8
:100E900070B50025002424E000BF8021134800F035
:100EA00014FA0028F9D0282000F076F880210F48A5
:100EB00000F00BFA01280DD100BF80210B4800F093
:100EC00004FA0128F9D0C4F1070101208840C0B21A
:100ED000054304E0C4F10701012088408543601CFC
:100EE000C4B2082CD8DB284670BD0000000C0140BD
:100EF00010B50446FFF7BAFF8021254800F0EEF94F
:100F000044F2506000F048F88021214800F0E8F9F0
:100F10001E2000F041F8FFF79BFF80211C4800F0E5
:100F2000D4F980BB00BF8021194800F0CEF9002819
:100F3000F9D000BF8021164800F0C7F90128F9D088
:100F4000FFF7A6FF2070FFF7A3FF6070FFF7A0FF79
:100F5000C01EA070FFF79CFFE070FFF799FF2071A3
:100F6000FFF784FF80210A4800F0BAF92078617801
:100F70000844A1780844E17801442079C01E8142E8
:100F800002D1012010BD01E00020FBE70020F9E7BD
:100F9000000C01407047000001B508490098086046
:100FA0004FF0E020006940F001004FF0E0210861BF
:100FB00000BF024800680028FBD108BD3C000020AB
:100FC000002105E0002200E0521C702AFCD3491CDD
:100FD0008142F7D37047000010B5102000F046F8AA
:100FE00008B31021124800F070F980B94FF4005195
:100FF000104800F075F910A117A002F0ADF8A72075
:1010000000F0A2FF0621002003F07AF90BE04FF474
:101010000051084800F062F9A62000F095FF062173
:10102000012003F06DF9102000F01AF810BD000047
:10103000000C01400010014041626E6F726D616CE6
:1010400020736D6F6B652C20666972652062656820
:101050006176696F720000003136343300000000A1
:101060000149086070470000140401400146002057
:101070000022074B1B6803EA0102054B14331B686F
:101080000B4013B10AB1012000E0002070470000BE
:1010900000040140002123498279002A3AD00A46FF
:1010A000126803689A430B461A600A1D12680368A7
:1010B0009A430B1D1A60027911440A6803681A43A7
:1010C0000A60184A0832126803689A43154B0833BD
:1010D0001A601A1D126803689A43124B0C331A6087
:1010E0004279102A0ED11A1F126803681A430D4B59
:1010F00008331A601A1D126803681A43094B0C332F
:101100001A600DE00749427911440A6803681A43DE
:101110000A6005E0027911440A6803689A430A608C
:1011200070470000000401400EB50121092000F0C5
:101130008DFF01F0DBF81020ADF8080004208DF8D9
:101140000B0002A90A4800F035F80421012000F044
:1011500011F81020009000208DF8040010208DF868
:10116000050001208DF806006846FFF793FF0EBDCD
:10117000000C014030B500228B071C0F0F2303FA2F
:1011800004F20B4B8C1053F824309343084C8D1011
:1011900044F8253023468C1053F824308C07240F54
:1011A00000FA04F42343024C8D1044F8253030BD7E
:1011B000080001402DE9F0410246002500260020EC
:1011C00000230024002791F803C00CF00F0591F8CC
:1011D00003C00CF0100CBCF1000F03D091F802C05A
:1011E0004CEA050591F800C0BCF1000F31D014683D
:1011F00000202BE04FF0010C0CFA00F3B1F800C016
:101200000CEA03069E4220D183004FF00F0C0CFA2B
:1012100003F7BC4305FA03FC4CEA040491F803C04D
:10122000BCF1280F06D14FF0010C0CFA00FCC2F8FB
:1012300014C00AE091F803C0BCF1480F05D14FF08B
:10124000010C0CFA00FCC2F810C0401C0828D1D3D5
:101250001460B1F800C0BCF1FF0F34DD5468002009
:101260002EE000F1080C4FF0010808FA0CF3B1F879
:1012700000C00CEA03069E4221D183004FF00F0C00
:101280000CFA03F7BC4305FA03FC4CEA040491F89A
:1012900003C0BCF1280F05D100F1080C08FA0CF8C6
:1012A000C2F8148091F803C0BCF1480F07D100F1D7
:1012B000080C4FF0010808FA0CF8C2F81080401C26
:1012C0000828CED35460BDE8F08102460020936820
:1012D0000B400BB1012000E00020704741617047D6
:1012E0000161704700BFFEE708B50121042000F04E
:1012F000ADFE4FF41840ADF8000001208DF802005B
:1013000010208DF8030069460448FFF753FFBDF82D
:1013100000100248FFF7E4FF08BD0000000801408C
:1013200010B50446012C04D101030948FFF7D8FF8A
:101330000DE0022C04D1A1020548FFF7D1FF06E021
:10134000032C04D14FF400410148FFF7C9FF10BD41
:101350000008014010B50446012C04D101030948DE
:10136000FFF7BCFF0DE0022C04D1A1020548FFF7F6
:10137000B5FF06E0032C04D14FF400410148FFF70C
:10138000ADFF10BD000801400EB50121084600F078
:101390005DFE4FF4C06000F069FB29208DF8080065
:1013A00001208DF8090000208DF80A0001208DF839
:1013B0000B0002A800F022FB4FF40030FFF750FEB4
:1013C0004FF40030009000208DF8040008208DF8C4
:1013D000050001208DF806006846FFF75BFE01213D
:1013E0004FF0C05000F022FE012000F001FE01206D
:1013F00000F00EFE012802D100F000FE01E0FFF730
:10140000DBFC012000F0C0FE00BF612000F09EFE6A
:101410000028FAD04FF4007000F0C2FE012000F066
:10142000B9FE00F051FF00F045FF0121022000F05D
:1014300013FF00F03FFF202000F02CFF00F03AFFE8
:10144000002000F019FF00F035FF0EBD00BFFEE7E1
:1014500008B50121042000F0F9FD0F20ADF80000CF
:1014600010208DF8030003208DF80200694604481F
:10147000FFF7A0FE0F210248FFF730FF08BD000074
:10148000000801402DE9F84F81468A46012000906E
:101490004FEA8910FFF736FA074600221B4BFFF789
:1014A000B4F90546FFF73FFA8346B9F1000F13DDA3
:1014B00000240EE0504600F033F8432094FBF0F196
:1014C00000FB114020B912A113A0009A02F0BAFF4C
:1014D000641C5C45EEDB17E0B9F1000F14DA002460
:1014E0000EE0504600F052F9432094FBF0F100FB6F
:1014F000114020B906A108A0009A02F0A3FF641CC5
:10150000CBF100008442ECDBBDE8F88F0080464060
:1015100039393039000000003131373036000000F1
:1015200010B5044608219848FFF7DAFE04219648D2
:10153000FFF7D4FE02219448FFF7D0FE0121924824
:10154000FFF7CCFE2046FFF73BFD08218E48FFF752
:10155000C5FE04218C48FFF7C1FE02218A48FFF72F
:10156000BDFE01218848FFF7B9FE2046FFF728FDA0
:1015700008218548FFF7B4FE04218348FFF7B0FE39
:1015800002218148FFF7AAFE01217F48FFF7A6FE4E
:101590002046FFF715FD08217B48FFF79FFE042139
:1015A0007948FFF79BFE02217748FFF797FE01215C
:1015B0007548FFF793FE2046FFF702FD08217248A9
:1015C000FFF78CFE04217048FFF78AFE02216E4867
:1015D000FFF784FE01216C48FFF780FE2046FFF7ED
:1015E000EFFC08216848FFF779FE04216648FFF701
:1015F00075FE02216448FFF771FE01216248FFF782
:101600006DFE2046FFF7DCFC08215F48FFF766FE11
:1016100004215D48FFF764FE02215B48FFF760FE8E
:1016200001215948FFF75AFE2046FFF7C9FC08215F
:101630005548FFF753FE04215348FFF74FFE0221A0
:101640005148FFF74BFE01214F48FFF747FE204668
:10165000FFF7B6FC08214C48FFF740FE04214A483A
:10166000FFF73CFE02214848FFF73AFE01214648B9
:10167000FFF734FE2046FFF7A3FC08214248FFF79E
:101680002DFE04214048FFF729FE02213E48FFF7C6
:1016900025FE01213C48FFF721FE2046FFF790FC84
:1016A00008213948FFF71AFE04213748FFF716FED4
:1016B00002213548FFF714FE01213348FFF710FEE1
:1016C0002046FFF77DFC08212F48FFF707FE042185
:1016D0002D48FFF703FE02212B48FFF7FFFD0121F4
:1016E0002948FFF7FBFD2046FFF76AFC0821264842
:1016F000FFF7F4FD04212448FFF7F0FD0221224802
:10170000FFF7ECFD01212048FFF7EAFD2046FFF737
:1017100057FC08211C48FFF7E1FD04211A48FFF798
:10172000DDFD02211848FFF7D9FD01211648FFF71A
:10173000D5FD2046FFF744FC08211348FFF7D0FDF4
:1017400004211148FFF7CAFD02210F48FFF7C6FD2B
:1017500001210D48FFF7C4FD2046FFF731FC0821A9
:101760000948FFF7BBFD04210748FFF7B7FD022139
:101770000548FFF7B3FD01210348FFF7AFFD204601
:10178000FFF71EFC10BD00000008014010B5044624
:1017900008219848FFF7A4FD04219648FFF79EFD15
:1017A00002219448FFF79AFD01219248FFF798FD26
:1017B0002046FFF705FC08218E48FFF78FFD042126
:1017C0008C48FFF78BFD02218A48FFF787FD012136
:1017D0008848FFF783FD2046FFF7F2FB0821854884
:1017E000FFF77CFD04218348FFF778FD0221814843
:1017F000FFF774FD01217F48FFF772FD2046FFF7D8
:10180000DFFB08217B48FFF769FD04217948FFF7DA
:1018100065FD02217748FFF761FD01217548FFF75B
:101820005DFD2046FFF7CCFB08217248FFF756FD0F
:1018300004217048FFF752FD02216E48FFF750FD6A
:1018400001216C48FFF74CFD2046FFF7B9FB08214A
:101850006848FFF743FD04216648FFF73FFD02217A
:101860006448FFF73BFD01216248FFF737FD204642
:10187000FFF7A6FB08215F48FFF730FD04215D4814
:10188000FFF72CFD02215B48FFF72AFD0121594893
:10189000FFF724FD2046FFF793FB08215548FFF78B
:1018A0001DFD04215348FFF719FD02215148FFF7A0
:1018B00015FD01214F48FFF711FD2046FFF780FB82
:1018C00008214C48FFF70AFD04214A48FFF708FDAC
:1018D00002214848FFF704FD01214648FFF7FEFCBE
:1018E0002046FFF76DFB08214248FFF7F7FC042173
:1018F0004048FFF7F3FC02213E48FFF7EFFC0121CF
:101900003C48FFF7EBFC2046FFF75AFB082139481B
:10191000FFF7E4FC04213748FFF7E2FC02213548D9
:10192000FFF7DCFC01213348FFF7D8FC2046FFF726
:1019300047FB08212F48FFF7D1FC04212D48FFF772
:10194000CDFC02212B48FFF7C9FC01212948FFF7F4
:10195000C5FC2046FFF734FB08212648FFF7C0FCF2
:1019600004212448FFF7BCFC02212248FFF7B6FC03
:1019700001212048FFF7B2FC2046FFF721FB082198
:101980001C48FFF7ABFC04211A48FFF7A7FC022113
:101990001848FFF7A3FC01211648FFF79FFC2046DB
:1019A000FFF70EFB08211348FFF79AFC04211148AA
:1019B000FFF794FC02210F48FFF790FC01210D482E
:1019C000FFF78CFC2046FFF7FBFA08210948FFF7D8
:1019D00085FC04210748FFF781FC02210548FFF739
:1019E0007DFC01210348FFF779FC2046FFF7E8FA68
:1019F00010BD0000000801407047000070B50021D4
:101A000000230F22C47804B3154C246804F4E06466
:101A1000C4F5E064210AC1F10403CA40447804FA21
:101A200003F184781440214309010E4C0678A15536
:101A3000047804F01F050124AC4005786D11AD0059
:101A400005F1E025C5F8004109E0047804F01F0520
:101A50000124AC40044D0678761145F8264070BD4F
:101A60000CED00E000E400E080E100E00249014309
:101A7000024A1160704700000000FA050CED00E01A
:101A80002DE9F04106460F46904600244FEA4815DE
:101A9000B11CC8B2394600F043FA00BF06E00E4957
:101AA000485D00F07BFA6D1C601CC4B2102CF6DBA4
:101AB0007A1CD1B2B21CD0B200F032FA002406E097
:101AC0000549485D00F06AFA6D1C601CC4B2102C18
:101AD000F6DBBDE8F0810000B44500082DE9F041D7
:101AE00006460F46904600244FEA4815B11CC8B27E
:101AF000394600F015FA00BF06E00E49485D00F0D7
:101B00004DFA6D1C601CC4B2102CF6DB7A1CD1B2ED
:101B1000B21CD0B200F004FA002406E00549485D8A
:101B200000F03CFA6D1C601CC4B2102CF6DBBDE862
:101B3000F0810000A44C00082DE9F04106460F4654
:101B4000904600244FEA4815B11CC8B2394600F04F
:101B5000E7F900BF06E00E49485D00F01FFA6D1C72
:101B6000601CC4B2102CF6DB7A1CD1B2B21CD0B20D
:101B700000F0D6F9002406E00549485D00F00EFAB1
:101B80006D1C601CC4B2102CF6DBBDE8F0810000B7
:101B9000B44900082DE9F04106460F46904600245E
:101BA0004FEA4815B11CC8B2394600F0B9F900BF78
:101BB00006E00E49485D00F0F1F96D1C601CC4B2EE
:101BC000102CF6DB7A1CD1B2B21CD0B200F0A8F90E
:101BD000002406E00549485D00F0E0F96D1C601C3A
:101BE000C4B2102CF6DBBDE8F0810000B44A000856
:101BF0002DE9F04106460F46904600244FEA48156D
:101C0000B11CC8B2394600F08BF900BF06E00E499E
:101C1000485D00F0C3F96D1C601CC4B2102CF6DBEB
:101C20007A1CD1B2B21CD0B200F07AF9002406E0DE
:101C30000549485D00F0B2F96D1C601CC4B2102C5F
:101C4000F6DBBDE8F0810000C44C00082DE9F0414E
:101C500006460F46904600244FEA4815B11CC8B20C
:101C6000394600F05DF900BF06E00E49485D00F01E
:101C700095F96D1C601CC4B2102CF6DB7A1CD1B235
:101C8000B21CD0B200F04CF9002406E00549485DD2
:101C900000F084F96D1C601CC4B2102CF6DBBDE8AA
:101CA000F0810000744B00082DE9F04106460F4614
:101CB000904600244FEA4815B11CC8B2394600F0DE
:101CC0002FF900BF06E00E49485D00F067F96D1C72
:101CD000601CC4B2102CF6DB7A1CD1B2B21CD0B29C
:101CE00000F01EF9002406E00549485D00F056F9B1
:101CF0006D1C601CC4B2102CF6DBBDE8F081000046
:101D0000644C00082DE9F04106460F469046002439
:101D10004FEA4815B11CC8B2394600F001F900BFBE
:101D200006E00E49485D00F039F96D1C601CC4B234
:101D3000102CF6DB7A1CD1B2B21CD0B200F0F0F855
:101D4000002406E00549485D00F028F96D1C601C80
:101D5000C4B2102CF6DBBDE8F0810000244C000872
:101D60002DE9F04706460F46904600250024A1467F
:101D700031E018F809002038C5B2782E02DD0026BF
:101D8000781CC7B23946304600F0CAF8002407E094
:101D900004EB0511134A505C00F000F9601CC4B25A
:101DA000082CF5DB781CC1B2304600F0B9F80024ED
:101DB00008E004EB051108310A4A505C00F0EEF827
:101DC000601CC4B2082CF4DB06F10800C6B209F1AD
:101DD000010000F0FF0918F809000028C9D1BDE88A
:101DE000F08700000C4F000810B5002000F001F84B
:101DF00010BD70B50646002415E004F1B001C8B26C
:101E000000F0A2F8012000F09FF8102000F09CF8EC
:101E1000002504E0304600F0C1F8681CC5B2842DEE
:101E2000F8DB601CC4B2082CE7DB70BD08B50121EB
:101E3000082000F00BF94FF47040ADF800001020BE
:101E40008DF8030003208DF8020069463248FFF741
:101E5000B1F94FF470413048FFF742FA4FF40051A6
:101E60002D48FFF73BFA2D48FFF796F8AE2000F01B
:101E70006BF8022000F068F8102000F065F84020B0
:101E800000F062F8B02000F05FF8812000F05CF80C
:101E9000FF2000F059F8A12000F056F8A62000F02D
:101EA00053F8A82000F050F83F2000F04DF8AD2086
:101EB00000F04AF88B2000F047F8302000F044F89A
:101EC000C82000F041F8D32000F03EF8002000F0D8
:101ED0003BF8D52000F038F8802000F035F8D92004
:101EE00000F032F81F2000F02FF8DA2000F02CF874
:101EF000122000F029F8DB2000F026F8402000F046
:101F000023F8AF2000F020F80020FFF772FF002137
:101F1000084600F005F808BD000C014020A10700AC
:101F200070B504460D4605F1B001C8B200F00CF8DA
:101F3000102141EA141000F007F804F00F0141F0FD
:101F4000010000F001F870BD70B505464FF48051F6
:101F50001148FFF7C3F900241BE005FA04F000F074
:101F6000800028B14FF480410B48FFF7B9F904E035
:101F70004FF480410848FFF7B1F94FF4004106489B
:101F8000FFF7ACF94FF400410348FFF7A9F9601CD3
:101F9000C4B2082CE1DB70BD000C014070B50546F1
:101FA0004FF480511148FFF79BF900241BE005FA1C
:101FB00004F000F0800028B14FF480410B48FFF797
:101FC0008FF904E04FF480410848FFF787F94FF498
:101FD00000410648FFF782F94FF400410348FFF73C
:101FE0007FF9601CC4B2082CE1DB70BD000C01401D
:101FF000014908627047000000000E420349096869
:1020000041EA8001014A1160704700000070004001
:1020100001460020034A52680A400AB1012000E04C
:1020200000207047007000407047000029B1064A48
:10203000D2690243044BDA6104E0034AD269824365
:10204000014BDA61704700000010024029B1064AD6
:1020500092690243044B9A6104E0034A9269824305
:10206000014B9A617047000000100240014908606E
:10207000704700004004424230B500210022002495
:1020800000232D4D6D6805F00C0121B1042905D008
:10209000082923D105E0294D056022E0274D056080
:1020A0001FE0254D6D6805F47012234D6D6805F431
:1020B0008034022505EB92421CB9214D5543056041
:1020C0000BE01D4D6D6805F400351DB11C4D5543E9
:1020D000056002E0194D5543056002E0174D0560AB
:1020E00000BF00BF144D6D6805F0F0010909154DE2
:1020F0006B5C0568DD4045600F4D6D6805F4E0617F
:10210000090A104D6B5C4568DD4085600A4D6D68BD
:1021100005F46051C90A0B4D6B5C4568DD40C56034
:10212000054D6D6805F44041890B074D6B5CC56832
:10213000B5FBF3F5056130BD0010024000127A00D6
:1021400000093D00140000202400002010B50146C5
:102150000022002300204A11012A02D1094C2368E1
:1021600006E0022A02D1074C236A01E0054C636AAB
:1021700001F01F02012494401C400CB1012000E03A
:10218000002010BD001002400149086070470000A7
:102190008004424201490860704700003C0442420A
:1021A0000249096A0143014A116270470010024066
:1021B00010B5022000F026F830B14FF40030FEF7E1
:1021C0004FFF022000F002F810BD0000024909880C
:1021D0008143014A11807047042800400348008869
:1021E00040F01000014908807047000004280040BA
:1021F000034800884FF6EF71084001490880704796
:102200000428004001460020064A12880A40D0B245
:10221000044A121F12880A4012B108B1012000E0DE
:10222000002070470428004010B50220FFF7EAFFA5
:10223000012808D14004FEF713FF0220FFF7C6FF74
:1022400000F038F806E00120FFF7DCFF012801D19B
:10225000FFF7BCFF10BD000029B1064A12880243F7
:10226000044B1A8004E0034A12888243014B1A800F
:10227000704700000028004000B50246FFF7AEFF9F
:10228000100C03490880091D0A80FFF7B1FF00BD4B
:102290001828004000B50246FFF7A0FFC2F3034034
:1022A00003490880091D0A80FFF7A2FF00BD000056
:1022B0000828004000BF0348008800F020000028E4
:1022C000F9D0704704280040074800884FF6F7719E
:1022D00008400549088000BF0348008800F0080056
:1022E0000028F9D0704700000428004008B54FF4DA
:1022F000C060FFF7BBFB0A208DF8000001208DF8BD
:1023000001008DF802008DF803006846FFF776FBA8
:1023100008BD704710B500F001F810BD0CB50020E5
:10232000019000903348006840F4803031490860E3
:1023300000BF3048006800F4003000900198401C55
:102340000190009818B90198B0F5A06FF1D1294813
:10235000006800F4003010B10120009001E000207E
:1023600000900098012843D12348006840F01000F5
:10237000214908600846006820F00300086008460C
:10238000006840F0020008601A4840681949486037
:102390000846406848600846406840F480604860ED
:1023A0000846406820F47C1048600846406840F4C5
:1023B000E81048600846006840F08070086000BF80
:1023C0000C48006800F000700028F9D00948406807
:1023D00020F00300074948600846406840F00200CA
:1023E000486000BF0348406800F00C000828F9D19D
:1023F0000CBD0000001002400020024010B500F0AB
:102400006FF810BD30B51A4800681A4AB0FBF2F1F7
:10241000B1F1807F01D301201DE021F07F40401EFB
:102420004FF0E022506150170F22002807DA1307FF
:102430001D0E114B00F00F04241F1D5503E0130760
:102440001C0E0E4B1C5400BF00204FF0E022906188
:1024500007201061002008B100BFFEE74FF0E02028
:10246000006920F001004FF0E021086130BD00005C
:102470000000002040420F0018ED00E000E400E002
:1024800010B51348006840F0010011490860084683
:102490004068104908400E494860084600680E49E7
:1024A00008400B4908600846006820F48020086056
:1024B0000846406820F4FE0048604FF41F00886022
:1024C000FFF728FF4FF000600449086010BD0000CE
:1024D000001002400000FFF8FFFFF6FE08ED00E0EC
:1024E0000448006820B103480068401E01490860A4
:1024F000704700003C00002000B587B0012188042F
:10250000FFF794FD01210820FFF7A0FD4FF4A06024
:10251000FFF7ACFA27208DF8180000208DF81A007C
:1025200001208DF81B0006A8FFF768FA4FF48060C1
:10253000ADF8140018208DF8170003208DF8160050
:1025400005A91948FEF736FE4FF40060ADF81400F7
:1025500004208DF8170005A91348FEF72BFE4FF451
:10256000E13001900020ADF80800ADF80A00ADF8A8
:102570000C00ADF810000C20ADF80E0001A90B48BE
:1025800000F0A0F8012240F22441084800F074F85D
:10259000012240F22551054800F06EF80121034860
:1025A00000F034F807B000BD000C014000480040C6
:1025B00010B500BF40F22551104800F033F858B173
:1025C0000E48001D0088C1B20D4802780078401CFA
:1025D0000B4B18700B48815440F22441074800F01F
:1025E00021F848B105480088C4B20448001D00889D
:1025F000C4B201200449087010BD0000004800402A
:10260000280000206C0000202900002021B18289D0
:1026100042F40052828104E082894DF6FF731A4031
:102620008281704770B502460024002300250020F7
:1026300040F66A16B14200D100BFC1F3421501F065
:102640001F03012606FA03F3012D02D196893340B8
:1026500006E0022D02D1168A334001E0968A33400B
:102660000C12012606FA04F41688344013B10CB19A
:10267000012000E0002070BDF0B5034600240026D4
:102680000025002040F66A17B94200D100BF184665
:10269000C1F3421401F01F06012707FA06F5012CC9
:1026A00001D10C3004E0022C01D1103000E01430D4
:1026B0001AB107682F43076002E00768AF4307605D
:1026C000F0BD00002DE9F04786B005460E46002417
:1026D000A24600BFA1460027B08900B100BF2F4627
:1026E0002C8A4CF6FF700440F08804432C82AC899D
:1026F0004EF6F3100440B0883189084371890843CD
:102700000443AC81AC8A4FF6FF400440B0890443D7
:10271000AC8201A8FFF7B0FC1F48874202D1DDF868
:1027200010A001E0DDF80CA0A88900F4004040B141
:102730000AEBCA0000EB0A1031684900B0FBF1F85F
:1027400007E00AEBCA0000EB0A1031688900B0FB11
:10275000F1F86420B8FBF0F004012009642101FBCA
:102760001089A88900F4004040B1322000EBC90074
:10277000B0FBF1F000F00700044308E0322000EB6A
:1027800009106421B0FBF1F000F00F0004432C812C
:1027900006B0BDE8F087000000380140C1F3080230
:1027A0008280704700BFFEE70FB4054B10B503A948
:1027B000044A029800F038F910BC5DF814FB0000E0
:1027C000A53500086000002030B528B1144C031F67
:1027D000002021680A4605E0084630BD9A4203D829
:1027E00010465268002AF9D1002800D041680BD069
:1027F0000468A3EB0005A54204D11B681C440346F2
:10280000046002E0436000E023603AB11C68D51A1E
:10281000A54203D115682C441C6052685A6030BD33
:10282000640000202DE9F04782460F4C10480D4E01
:102830000E4F001B4FF0000820F007054FF0010974
:1028400000221146504600F0E9FE002802D130680F
:1028500010B10020BDE8F0873C60C4E90058C6F81C
:102860000090EDE768000020740400206400002060
:102870007006002002E008C8121F08C1002AFAD121
:1028800070477047002001E001C1121F002AFBD1F0
:10289000704700002DE9FF5F82B00021DDE90430C0
:1028A000020DDDF840B0034318D044F61050A2F2F8
:1028B000FF3242431514119801281FD0A5EB0B00DD
:1028C000401C5FEA000A4FF000064E4FDFF83891D7
:1028D000B046504615D5CAF1000413E01198012402
:1028E0004AA3012801D16FEA0B010298119AC0E9AD
:1028F0000031C0E9024206B0BDE8F09FCBF1000014
:10290000DFE704460021404A491842EB0450CDE974
:10291000001012E0E00707D032463B4640464946E9
:10292000FDF701FF8046894632463B461046194670
:10293000FDF7F9FE06460F466410002CEAD1DDE9EA
:102940000401DDE90023BAF1000F06DAFDF7EBFE22
:1029500042464B46FDF7E7FE05E0FDF756FF4246CF
:102960004B46FDF752FF04460E460022284BFEF769
:1029700025F803D84FF0FF30014607E00022254B31
:1029800020463146FDF728FEFEF7D2F9102409E073
:10299000002C0ADB0A220023FEF75AF8039B303290
:1029A0001A55641E50EA0102F2D1641C039AC4F164
:1029B00011031444119A012A03D0012208430DD1B6
:1029C0000AE0084304D000204FF0110B119072E789
:1029D000A3EB0B056D1E0DE05B4504DD4FF000021F
:1029E00005F1010504E003DA4FF00002A5F101054D
:1029F000002AECD002981199C0E90231C0E90045E3
:102A000079E70000000014400000F03F30000000B3
:102A10000000F0430000E03F30380A2801D20120D6
:102A200070470020704700002DE9FF4F95B09B468E
:102A30008946064600250FE2252877D1002427463F
:102A4000F84A0121059400E0044316F8013F203BB9
:102A500001FA03F01042F7D130782A2811D06FF034
:102A60002F033078A0F13002092A16D8059A44F0D5
:102A7000020402EB820203EB42021044761C059032
:102A8000EFE759F8042B0592002A03DA504244F488
:102A90000054059044F00204761C30782E2816D19C
:102AA00016F8010F44F004042A280DD06FF02F020D
:102AB0003078A0F13003092B09D807EB870302EB2C
:102AC0004303C718761CF3E759F8047B761C30786B
:102AD0006C280FD006DC4C2817D068280DD06A2847
:102AE00014D104E0742810D07A280FD10DE044F4FA
:102AF00000140AE044F4801401E044F440147278B5
:102B0000824202D104F58014761C761C3078662847
:102B10000BD013DC582877D009DC002875D0452865
:102B2000F6D04628F4D047281AD19DE118E0632852
:102B300035D0642879D0652812D195E1702873D0FA
:102B400008DC6728F1D069286FD06E280DD06F2877
:102B500006D1B5E073282CD0752875D0782874D0AC
:102B60005A46179990476D1C75E1C4F3025002282C
:102B700009D003280DD0D9F8001004280DD00D601D
:102B800009F1040967E1D9F80010EA17C1E9005218
:102B9000F6E7D9F800100D80F2E70D70F0E719F8AC
:102BA000041B8DF8001000208DF80100EA4601207A
:102BB00003E059F804AB4FF0FF3061074FF000011C
:102BC00002D40DE008F101018846B9420FDA8045D0
:102BD000F8DB1AF808100029F4D108E008F1010127
:102BE00088468142FADB1AF808100029F6D10598C8
:102BF0005B46A0EB080721463846179A00F094FA86
:102C0000284400EB080507E04DE029E10DE01AF843
:102C1000010B5A4617999047B8F10108F7D25B4665
:102C200021463846179A13E142E00A220092C4F383
:102C300002524FF0000A022A08D059F804CB032AA6
:102C40004FEAEC710AD00DE029E02AE009F1070112
:102C500021F00702F2E802C1914609E00FFA8CFC6C
:102C60004FEAEC71042A03D14FFA8CFC4FEAEC7165
:102C7000002907DA0A460021DCF1000C61EB0201B1
:102C80002D2202E0220504D52B228DF804200122FA
:102C900003E0E20701D02022F7E7904659E00A213D
:102CA00002E010220DE010214FF0000A00910BE02D
:102CB00010224FF0000A44F004040827009203E0B9
:102CC00008224FF0000A0092C4F30252022A05D0F3
:102CD00059F804CB0021032A08D009E009F10701C3
:102CE00021F00702F2E802C1914605E01FFA8CFCD0
:102CF000042A01D10CF0FF0C4FF00008220728D560
:102D0000702806D0009B83F0100353EA0A0305D015
:102D10000EE040228DF80420012208E05CEA010266
:102D200006D030228DF804208DF80500022290464E
:102D3000009B83F0080353EA0A030AD15CEA01020C
:102D400001D1620705D530228DF804204FF001082B
:102D50007F1E582804D034A003900EA802900DE0E6
:102D600036A0F9E753466046009AFDF771FE8446A7
:102D70000398825C0298401E029002705CEA010097
:102D8000F0D1029806A9081A00F1200A600702D5BE
:102D900024F4803400E00127574502DDA7EB0A0048
:102DA00000E0002000EB0A01009005984144401A21
:102DB0000590E00306D45B462146179A059800F07B
:102DC000B3F90544002706E001A85A46C05D1799EB
:102DD00090476D1C7F1C4745F6DBE0030CD55B4636
:102DE0002146179A059800F09FF9054404E0302029
:102DF0005A46179990476D1C0099481E009000296B
:102E0000F5DC08E0029802995A460078491C0291C4
:102E1000179990476D1CBAF10001AAF1010AF1DC83
:102E200065E100000928010030313233343536378E
:102E30003839616263646566000000003031323306
:102E400034353637383941424344454600000000A6
:102E500000F058F90544761C307800287FF4ECAD7A
:102E600019B02846BDE8F08F620700D4062709F1A3
:102E7000070222F0070CFCE80223E14603F00048B9
:102E80005FEA080C02D00FF2702C0DE05FEA045CE0
:102E900002D50FF2682C07E05FEAC47C02D00FF283
:102EA000602C01E0AFF2700C4FF0FF3823F00043CC
:102EB000CDF850C065280CD006DC452809D046283E
:102EC0001DD047283DD13DE0662818D067287ED127
:102ED00038E00021112F01DB112000E0781CCDE942
:102EE000000106A90EA8FFF7D5FCDDE90F010E9A37
:102EF00003910021009207F1010A04914DE04FF087
:102F000000400097CDE9011006A90EA8FFF7C2FC0A
:102F1000DDE90F0203920E9B11990022DDF80CA04F
:102F20000093049211B9791C00EB010AB7EB0A0077
:102F300004D4C0F1FF3007F1010A0490AAEB0700A6
:102F4000019044E0012F00DA01270021112F01DD5B
:102F5000112000E03846CDE9000106A90EA8FFF7D0
:102F600099FCDDE90F010E9A039100210491009272
:102F7000BA4621070CD40399514500DA8A46BAF1C2
:102F8000010F05DD009AAAF10101515C302908D03A
:102F9000B84202DA10F1040F06DA0121CDE901107E
:102FA00015E0AAF10101E9E7002805DC04990144D4
:102FB0000491AAEB000102E0411C514500DD8A4664
:102FC0000499401A401C01904FF0004002902007E5
:102FD00004D40198504501DBCDF8048000208DF821
:102FE0004F0002980DF14F07B0F1004F25D02B2074
:102FF0000E9002984FF0020800280CDA404202902E
:103000002D200E9007E00A210298FDF70BFD3031CC
:10301000029007F8011DB8F10001A8F10108F2DCE7
:1030200002980028EFD1791E0E980870307800F0D1
:10303000200040F0450007F8020D12A8C01B00F167
:1030400007081498007800B1012000EB0A010198EC
:1030500001EBE07105984144401A401E0590E003E1
:1030600006D45B462146179A059800F05DF80544A2
:103070001498007818B15A46179990476D1CE003D0
:1030800024D55B462146179A059800F04DF8054473
:103090001CE00498002807DBDDE90301884203DD1A
:1030A0000098405C179901E0179930205A469047E4
:1030B000049805F10105401C04900198401E019000
:1030C00004D12E205A46179990476D1CBAF1000181
:1030D000AAF1010ADDDC05E017F8010B5A46179941
:1030E00090476D1CB8F10001A8F10108F4DC5B46C3
:1030F0002146179A0598ABE62D0000002B00000032
:10310000200000002DE9F041044600251E46174628
:10311000880404D405E039462020B0476D1C641EA5
:10312000F9D52846BDE8F0812DE9F0410446002597
:103130001E469046C80301D5302700E020278804AA
:1031400004D505E041463846B0476D1C641EF9D5EC
:103150002846BDE8F081000070B504460D462A46B9
:10316000214602A0FFF720FB70BD00007B224D220C
:103170003A22616C657274222C224944223A22253B
:1031800073222C2243223A222573227D0A0000005A
:1031900010B5FFF737F9FDF751FEFEF747FEFEF7D2
:1031A000A3F8FFF7A9F9FDF725FEFEF7EDF801F00A
:1031B00081F80648FDF7F0FEFEF716FE01F0C3F8B1
:1031C000FEF746F9FDF7B0FF10BD0000C0C62D00A8
:1031D000014609B1086808B90020704702E0886814
:1031E000401C886041B1D1E90120904204D28A6834
:1031F0000868805C2028F2DDD1E90120904202D1EC
:103200008868401E88600846E7E7000070B50446FD
:10321000002522E02568A08900F4807020B9A0680C
:1032200010B1A068FFF7F2FFA08900F4807028B900
:10323000206918B10A4A206951688847A08900F4BA
:10324000007028B9206A18B1054A206A5168884779
:1032500003484168204688472C46002CDAD170BDCF
:103260005400002070B504460D4600222946204631
:1032700000F0B1F970BD70B5044628202168884778
:1032800005461DB128212846FCF76FFF284670BD72
:1032900010B5044600221146204600F001F810BD8A
:1032A0002DE9F0418AB004460D4617461C2103A8BB
:1032B000FCF75BFF002600202B490860486004B93A
:1032C00031E003942046FCF75BFF401C0490002093
:1032D0000590264A07CA07AB07C32448FFF7CBFF70
:1032E000064606B91FE003A8FFF772FF8046414675
:1032F000304600F063FD00B915E05FB103A8FFF7A9
:1033000067FFDDE90410884203D205990398405C09
:1033100000B108E01DB105990398084428603046C3
:103320000AB0BDE8F08116B13046FFF76FFFCCB1AF
:10333000019400200290DDE90410884202D2059831
:10334000029004E0049810B10498401E029025B148
:10335000DDE901010844286003E00348DDE90112CA
:1033600006C000BF0020DBE74C0000205400002016
:1033700070B504460D4604B10DB9012070BDAC42D4
:1033800001D10020FAE705E0207808B90020F5E730
:10339000641C6D1C2078FCF7C5FE06462878FCF7F7
:1033A000C1FE8642F0D02078FCF7BCFE06462878A5
:1033B000FCF7B8FE301AE1E710B502A0FFF7F4F908
:1033C00010BD00007B224D223A2273746174757324
:1033D000227D0A0010B503A205A107A0FFF7E4F9BA
:1033E00010BD0000313333343561643134000000E6
:1033F00031313730360000007B224D223A2263689B
:1034000065636B696E222C224944223A222573227D
:103410002C224B223A222573227D0A0010B503A2EA
:1034200005A107A0FFF7C0F910BD00003133333408
:10343000356164313400000031313730360000002E
:103440007B224D223A22636865636B6F7574222C70
:10345000224944223A222573222C224B223A222549
:1034600073227D0A000000002DE9FF4706468946C9
:1034700014461D464946304600F0CAF98246FDF71B
:1034800071FA0746022000903A460B46019003A8C5
:1034900000F01CF803AA02213220FEF761FC294645
:1034A000204600F0B5F98246FDF75CFA0746022097
:1034B00000903A460B46019002A800F007F802AAD5
:1034C00004213220FEF74CFCBDE8FF872DE9FC5FAC
:1034D000814615461E46DDF830A000222E4B2846B8
:1034E0003146FDF792F9CDE90001FDF71CFA83465C
:1034F00000BF012419E0BBF1000F06D12748007876
:10350000AAEB040109F801000AE00A209BFBF0F194
:1035100000FB11B02149085CAAEB040109F8010085
:103520000A209BFBF0FB601CC4B25445E3DD2E2057
:1035300009F80A004FF0000B2F46B04601241FE0A7
:103540000022174B38464146FDF7EDF8CDE9000162
:10355000FDF7E9F983460A209BFBF0F100FB11B06F
:103560000E49085C0AEB040109F8010000220C4B2B
:1035700038464146FDF7D7F807468846601CC4B276
:103580000D988442DCDD002109EB0A020D981044FD
:103590004170BDE8FC9F00000000F03F40000020AB
:1035A0000000244070B504460D46E1B20548FFF71F
:1035B000F5F800BF0348008800F080000028F9D02B
:1035C000204670BD0048004010B5FCF7B1FD044630
:1035D0002068007810BD2DE9F04105460E461746DB
:1035E000002405B116B90020BDE8F081AC684FB1E8
:1035F00000E024687CB13046216AFCF7C8FD002851
:10360000F7D108E000E024682CB13046216AFFF7CA
:10361000AFFE0028F7D12046E6E700002DE9F04193
:103620000B3020F00706104D19E02068B04215D38A
:10363000B0420AD9871B201DD4F80480FCF77CFD1A
:10364000A019C0E90078286004E060682860201DA7
:10365000FCF772FD201D2660BDE8F081251D2C6859
:10366000002CE2D10020F7E7640000208AB000BF00
:10367000FFF78EFDA5E000F0EFF852490968401A07
:1036800049F64041884202D84E48006828B9FFF701
:10369000A1FE00F0E1F84B49086000F0DDF84A496E
:1036A0000968401A4949884205D9FFF785FE00F0AC
:1036B000D3F84549086006A8FDF71AFC012872D125
:1036C0009DF819309DF818209DF81B109DF81A00E0
:1036D000FFF7CAFE00F0C0F83D490968401A41F200
:1036E000883188425FD99DF81B00FDF706F90390E9
:1036F000FDF738F90022374BCDE90401FDF785F8D5
:1037000082468B469DF81A00FDF7F7F80590FDF705
:1037100029F9054652465B46FCF75EFF0746FDF772
:1037200065F904469DF81900FDF7E7F80390FDF7E9
:1037300019F907460022274BFDF767F8CDE9040188
:103740009DF81800FDF7D9F80746FDF70BF9054677
:10375000DDE90423FCF740FF8246FDF747F9814687
:1037600010211D48FDF7B1FD10B90120099007E0B7
:1037700010211948FDF7A9FD012801D10020099069
:1037800016A218A3DDE90801CDE90093CDE90212E4
:10379000049016A3224617A118A000F02BFE00F0FB
:1037A0005BF80B49086017480078012809D1002010
:1037B0001449087000BF144800F09EFB0020134914
:1037C000087058E72C00002030000020A08601007F
:1037D0003800002000002440000C01403939303905
:1037E0000000000039373831000000003937383028
:1037F00000000000313036343600000031313730FF
:1038000036000000290000206C0000202800002065
:103810002DE9FC5F81460C464FF0000A2046FDF77B
:1038200063F80090FDF79EF807460022094BFCF76D
:10383000ECFF0546FDF7DAF883464846FDF754F8F5
:10384000019059460198FCF76FFE82465046BDE84C
:10385000FC9F000000002440034800880249091F23
:10386000098800EB014070471C2800402DE9F04119
:1038700007460C460026B046E068B0F57A7F02D3D2
:103880000020BDE8F081E068401CE060A16820688D
:10389000405C5B2800D05DE0A068401CA060204632
:1038A000FFF796FC4CB1D4E90110884205D2A1681B
:1038B0002068405C5D2800D141E01CB1D4E90110D2
:1038C000884203D3A068401EA06043E0A068401E69
:1038D000A06000BF04F11000FFF7CDFC054605B95C
:1038E00038E016B92E46A84604E0C8F80050C5F8DE
:1038F0000480A846A068401CA0602046FFF768FC32
:103900002146404600F05AFA00B923E02046FFF76E
:103910005FFC44B1D4E90110884204D2A168206858
:10392000405C2C28D6D044B1D4E90110884204D29E
:10393000A1682068405C5D2800D00BE000BFE06813
:10394000401EE0602020F860BE60A068401CA060BF
:10395000012096E716B13046FFF758FC002090E7AB
:1039600002460023002100BF23E0505C302806DB24
:10397000505C392803DC505C3038034415E0505C5F
:10398000412806DB505C462803DC505C3738034492
:103990000BE0505C612806DB505C662803DC505C61
:1039A0005738034401E000207047032900D21B016F
:1039B000491C0429D9D31846F6E700002DE9F04345
:1039C00091B080460C4600BF00201090FFF7FCFD30
:1039D000814600250CB1206818B9002011B0BDE85F
:1039E000F08300253CE0A16820680844405D34284D
:1039F00020D00ADCA0F12B0009282ED2DFE800F04D
:103A0000202D212A2D1617181900382816D006DC6B
:103A1000352810D036280FD037281ED10DE0392890
:103A20000DD045280FD0652817D10BE000BF00BF8F
:103A300000BF00BF00BF00BF00BF00BF00BF00BF8E
:103A400000BF00BF00BFA16820680844405D0DF8BA
:103A5000050003E00DF8059000E00AE000BF6D1CD2
:103A60003F2D05D224B1A068284461688842BAD3AA
:103A700000BF00200DF8050010A9684600F0ACFC5E
:103A800006460F4668461099884201D10020A5E7F6
:103A9000C8E90667144A154B30463946FCF78EFFD5
:103AA00004D86FF00040C8F8140011E00022104B59
:103AB00030463946FCF76AFF04D84FF00040C8F89A
:103AC000140005E030463946FCF72DFFC8F8140015
:103AD0000820C8F80C00A0686A461099891A0844A2
:103AE000A06001207AE700000000C0FFFFFFDF4177
:103AF0000000E0C12DE9F04180460C46002700257A
:103B0000E068B0F57A7F02D30020BDE8F081E0687C
:103B1000401CE06044B1D4E90110884204D2A1689D
:103B20002068405C7B2800D07BE0A068401CA0603F
:103B30002046FFF74DFB4CB1D4E90110884205D275
:103B4000A1682068405C7D2800D15DE01CB1D4E90B
:103B50000110884203D3A068401EA06061E0A06805
:103B6000401EA06000BF04F11000FFF784FB064672
:103B700006B956E017B93746354602E02E60756043
:103B80003546A068401CA0602046FFF721FB214677
:103B9000284600F04CF800B943E02046FFF718FB38
:103BA000286928620020286144B1D4E901108842C4
:103BB00004D2A1682068405C3A2800D031E0A068B7
:103BC000401CA0602046FFF703FB2146284600F07A
:103BD000F5F800B925E02046FFF7FAFA44B1D4E938
:103BE0000110884204D2A1682068405C2C28BAD019
:103BF00044B1D4E90110884204D2A1682068405C35
:103C00007D2800D00DE000BFE068401EE06040204D
:103C1000C8F80C00C8F80870A068401CA06001201B
:103C200073E717B13846FFF7F1FA00206DE72DE989
:103C3000F84F80460C46A16820680844461CA168DD
:103C400020680844451C002000900027A1682068D7
:103C5000405C222800D0A6E04FF0000AD1460DE0DB
:103C600028785C2809D1681C2168401A616888425C
:103C700000D398E009F101096D1C6D1C2068281A19
:103C80006168884202D228782228E9D12068281A5F
:103C90006168884202D22878222800D083E0A16897
:103CA00020680844281AA0EB090A0AF101002169DA
:103CB0008847074607B976E0009761E030785C28CE
:103CC00007D016F8010B009908700098401C00906E
:103CD00056E04FF00209A81B012800DA63E0707873
:103CE000662819D008DC222832D02F2832D05C2850
:103CF0002FD0622840D108E06E2814D0722819D045
:103D000074281ED0752837D12BE008200099087040
:103D10000098401C009030E00C200099087000983A
:103D2000401C009029E00A20009908700098401C6F
:103D3000009022E00D20009908700098401C00902F
:103D40001BE00920009908700098401C009014E0C6
:103D500000BF00BF7078009908700098401C009068
:103D60000BE06A462946304600F08EFB8146B9F1E9
:103D7000000F00D117E000E015E000BF4E4400BF87
:103D8000AE429BD30020009908701020C8F80C00A8
:103D9000C8F810702068281AA060A068401CA060B5
:103DA0000120BDE8F88F17B138466169884716B120
:103DB0002068301AA0600020F3E7000070B50546C7
:103DC0000C460CB1206808B9002070BD9CB1A068F9
:103DD000001D616888420ED8A268216888180422F4
:103DE0003FA1FCF7E2F930B90420E860A068001DAB
:103DF000A0600120E9E79CB1A068401D616888428D
:103E00000ED8A26821688818052237A1FCF7CDF9E1
:103E100030B90120E860A068401DA0600120D4E70F
:103E2000ACB1A068001D6168884210D8A268216802
:103E3000881804222EA1FCF7B8F940B90220E860E6
:103E400001206861A068001DA0600120BDE76CB181
:103E5000D4E90110884209D2A1682068405C222878
:103E600004D121462846FFF7E2FEAEE7BCB1D4E913
:103E70000110884213D2A1682068405C2D2809D027
:103E8000A1682068405C302809DBA1682068405C9C
:103E9000392804DC21462846FFF790FD95E76CB1F0
:103EA000D4E90110884209D2A1682068405C5B28EF
:103EB00004D121462846FFF7D9FC86E76CB1D4E946
:103EC0000110884209D2A1682068405C7B2804D197
:103ED00021462846FFF70EFE77E7002075E7000031
:103EE0006E756C6C0000000066616C73650000000C
:103EF00074727565000000002DE9F04389B0074633
:103F00003846FFF7C5F904461CB9002009B0BDE8E2
:103F1000F0837EA12046FFF7A5F905462E6907220A
:103F20007BA13046FCF741F938B9FFF777FA4CF23C
:103F30005030FDF731F8FFF74DFA092276A13046EF
:103F4000FCF733F938B9FFF769FA4CF25030FDF756
:103F500023F8FFF73FFA052272A13046FCF725F956
:103F600078B972A12046FFF77DF9D0F8108024229D
:103F70006FA16846FCF7E0F86946404600F080F91A
:103F800000BF032273A13046FCF70FF9002875D15A
:103F9000FFF762FC70490968401A0A286ED96FA1C0
:103FA0002046FFF75FF9D0F8108060A12046FFF7A8
:103FB00059F9D0F81090FFF74FFC674908600422C8
:103FC00067A14046FCF7F1F858B967A207CA06ABEB
:103FD00007C30120FDF7BEF906A9484600F050F9D5
:103FE0008DE0042263A14046FCF7DFF858B963A2D4
:103FF00007CA06AB07C30120FDF792F906A9484698
:1040000000F03EF97BE002225FA14046FCF7CDF8CC
:1040100058B95EA207CA06AB07C30220FDF79AF99A
:1040200006A9484600F02CF969E004225AA140464E
:10403000FCF7BBF870B95AA0D0E900128068CDE94E
:10404000061208900220FDF76BF906A9484600F019
:1040500017F954E0052255A14046FCF7A6F870B9BF
:1040600054A207CA06AB07C34FF400515448FDF7EA
:1040700037F906A9484600F003F940E040E0052280
:1040800050A14046FCF791F880B950A2D2E9001047
:104090009268CDE9070206914FF400514848FDF7B8
:1040A0001DF906A9484600F0EBF828E004224AA1D1
:1040B0004046FCF77AF868B9142249A104A8FCF735
:1040C0003BF8C8214B48FDF7DDF904A9484600F04C
:1040D000D7F814E0072248A14046FCF766F870B90B
:1040E000142247A104A8FCF727F8C8214FF4347024
:1040F000FDF7C8F904A9484600F0C2F800BF00BFA8
:1041000014B12046FFF782F80120FFE64D000000C1
:1041100057454C434F4D4500636F6E6E6563746544
:10412000640000006C6F67696E0000004944000085
:104130004465617220667269656E642C2077656CD7
:10414000636F6D6520746F20424947494F542021A9
:10415000000000007361790034000020430000007B
:10416000706C6179000000006C65643120706C61D6
:104170007965640073746F70000000006C656420E2
:1041800073746F7065640000757000006C65643254
:1041900020706C6179656400706C757300000000BC
:1041A0006C6564322073746F706564007061757340
:1041B000650000006265657020706C61796564005F
:1041C00000100140726967687400000062656570E4
:1041D0002073746F70656400646F776E0000000078
:1041E000737465706D6F746F7220706C6179656443
:1041F0000000000030FDFFFF666F7277617264009F
:10420000737465706D6F746F722073746F70656412
:10421000000000002DE9F04704008A4616D054F84B
:10422000047CD4F800903E1F564500D956462046DF
:10423000FEF7CAFA05468846324621465046FFF741
:10424000EDF940B1C0F80090BDE8F087BDE8F04757
:104250000846FEF7E7BA44E9017955B129686A18BA
:10426000211F8A4202D9611B091F2960C5F80480F9
:10427000EAE7024AC2F80080E6E700006400002096
:1042800070B504460D462A46214602A0FEF78CFA78
:1042900070BD00007B224D223A22736179222C22CC
:1042A0004944223A222573222C2243223A222573A2
:1042B000227D0A0010B500241FE02107080E2246C7
:1042C0000021FDF7DDFB04F10801CAB22107080E49
:1042D0000221FDF7D5FB04F11001CAB22107080E37
:1042E0000421FDF7CDFB04F11801CAB22107080E25
:1042F0000621FDF7C5FB601CC4B2082CDDDB10BD38
:1043000070B505460E46012D0DD1002409E050215F
:1043100001EB0411C8B222463146FDF7F3FC601CE4
:10432000C4B2022CF3DB6DB9002409E0502101EB8B
:104330000411C8B222463146FDF7B6FC601CC4B277
:10434000022CF3DB70BD10B5002407E02107080E36
:1043500022460021FDF7F0FB601CC4B2082CF5DBFF
:1043600000240EE02107080E22460221FDF712FC70
:10437000E11CCAB22107080E0421FDF70BFC601CEA
:10438000C4B2032CEEDB002407E02107080E22460E
:104390000621FDF75BFC601CC4B2052CF5DB002494
:1043A00009E0602101EB0411C8B222460221FDF7A9
:1043B0001FFC601CC4B2012CF3DB002409E0602167
:1043C00001EB0411C8B222460421FDF787FB601CF3
:1043D000C4B2012CF3DB10BD00B583B00A46002146
:1043E000CDE9001101466846FCF7CFFBDDE900018D
:1043F00003B000BD2DE9F04F8BB0044689469246CC
:104400009B461498FCF7AEFA05460E465046FCF75C
:10441000A9FA07468846DDE91523DDE917108DE87E
:104420008009CDE90456CDE90623CDE908104A46B6
:1044300021460348FEF7B8F90BB0BDE8F08F000045
:104440009459000870B504460D46164633462A4670
:10445000214602A0FEF7A8F970BD00007B224D2284
:104460003A22757064617465222C224944223A22F2
:104470002573222C2256223A7B222573223A2225AA
:1044800064227D7D0A0000002DE9FF5F8046894699
:10449000154600240026C246002003908346029061
:1044A0000190A9EB0A00062800DA81E00AF1020077
:1044B000FFF756FA0646B6F55C4F03D3B6F5604FE4
:1044C00000D275E0B6F5584F29D3B6F55C4F26D229
:1044D0000AF10607002000900C200290A9EB0700CB
:1044E000062800DA64E038785C2802D178787528EC
:1044F00000D05DE0B81CFFF733FA00900098B0F5EB
:104500005C4F03D30098B0F5604F00D350E0C6F382
:104510000901009861F39F2000F5803402E0062035
:1045200002903446802C02D20120039018E0B4F5AA
:10453000006F04D202200390C020019010E0B4F577
:10454000803F04D203200390E020019008E0B4F5FE
:10455000881F04D204200390F020019000E027E09F
:104560000398401E00F0FF0B0BE004F0BF0040F08A
:104570008000296801F80B00A409ABF1010000F0EC
:10458000FF0BBBF1000FF0DC0398012804DD01985C
:1045900020432968087003E004F07F002968087050
:1045A0002968039808442860029804B0BDE8F09F89
:1045B0000020FAE7000000000000000000000000FA
:1045C00000000000000000000000000000000000EB
:1045D00000000000000000000000000000000000DB
:1045E00000000000000000000000000000000000CB
:1045F000000000001094D7733E3E7252107E7E423F
:10460000427E7E00000000FFFF494949494949FFB9
:10461000FF00000008CCCE4B494ACEDC187FFF8853
:104620008C86E2E000FFFF1252D2FF7F007EFE8800
:104630008C86E2E0103C2C24A4A4E5E7A6242424E4
:10464000A4B43C0C404949692D3456DBFF7F0E1B56
:10465000113020200000FEFE92929292F2F292928D
:104660009E9E808040703F0FFCFC4444474744447A
:10467000FCFC000000000000000000000000000042
:10468000000000000000000000000000000000002A
:10469000000000000000000000000000000000001A
:1046A000000000000000000000000000000000000A
:1046B0000000000080808080FF8080A0908884823D
:1046C0008080800000000000FF40211204081020BC
:1046D000204040001060020CC004040404FC0404E8
:1046E0000404000004047C0320202020203F20201C
:1046F0002020200020202020202020FF20202020FB
:104700002020200080804020100C0300030C10208B
:10471000408080004030119690909196909098142F
:1047200013503000040404040444847E0605040489
:1047300004040400008080808080808080808080ED
:1047400080808000000000000000000000000000E9
:10475000000000000000F888888888FF8888888822
:10476000F800000000001F080808087F8888888873
:104770009F80F000008060F8070004242425262490
:1047800024240400010000FF000000F949494949C0
:1047900049F9000000FE225A86100C242425262404
:1047A00024140C0000FF0408078041310F01013F71
:1047B00041417100008060F807001CE0010600E044
:1047C0001E000000010000FF00804020130C132099
:1047D0004080800080809E9292929EE0809EB2D225
:1047E000929E80000808F4949292F10001F2929453
:1047F00094F8080000000000001010F0F80000001D
:1048000000000000000000002020203F3F2020206A
:104810002000000000000000001010F0F800000070
:1048200000000000000000002020203F3F2020204A
:1048300020000000000000F80888888888888888A0
:104840000800000000001819292020202020201135
:104850001F0E00000000E0F03008080808080830CB
:10486000F0E0000000000F1F18302020202020184A
:104870000F0700000000307028080808080808D852
:10488000F0200000000030302824242222212120A2
:10489000301800008484FC848400F800FF008484C5
:1048A000FC84840010301F08884221180700202053
:1048B0003F20200000000000000000000000000079
:1048C00000000000000000000000000000000000E8
:1048D00000000000000000000000000000000000D8
:1048E00000000000000000000000000000000000C8
:1048F00000000000000202F2828282828282FE8038
:10490000808000000808080808080808080848808F
:10491000403F00000000C05F555555555555555F47
:104920004040000080601F04FD85450D152525557C
:104930004D8484000484E45C44C48082FE828282CC
:10494000FE82800002017F10103F80601F00000087
:10495000FF0000000000181610D0B89790909092B9
:10496000941000000020108C8380414628102844B9
:1049700043808000000000000000000000000000F4
:104980000000000000000000000000000000000027
:104990000000000000000000000000000000000017
:1049A0000000000000000000000000000000000007
:1049B00000000000000000000000000000000000F7
:1049C00000000000000000000000000000000000E7
:1049D00000000000000000000000000000000000D7
:1049E00000000000000000000000000000000000C7
:1049F00000000000109453321E325210007E4242DA
:104A0000427E0000000000FF49494949494949FFE9
:104A10000000000008CC4A49484ACC18007F88882A
:104A20008482E00000FF121252927F00007E88888C
:104A30008482E000102C2424A4A465A62424242429
:104A4000A4340C0040494929241452897F040A11D6
:104A5000102020000000FE9292929292F292929286
:104A60009E80800040300F00FC444444474444444E
:104A7000FC0000000000000000000000000000003A
:104A80000000000000000000000000000000000026
:104A90000000000000000000000000000000000016
:104AA0000000000000000000000000000000000006
:104AB000000000001060028C0000FE929292929220
:104AC000FE00000004047E01407E42427E427E429F
:104AD000427E40000000FC242424FC252624FC24E3
:104AE0002424040040308F80844C55252525554CC6
:104AF0008080800000000000000000000000000036
:104B00000000000000003636000000000000000039
:104B1000000000001060028C00FE9292929292922D
:104B2000FE00000004047E014448507F40407F5056
:104B3000484440000000FC242424FC252624FC24B6
:104B40002424040040308F80844C55252525554C65
:104B500080808000000000000000000000000000D5
:104B600000000000000036360000000000000000D9
:104B7000000000001060020CC000E22C203F202842
:104B8000E600000004047C030000FF0909094989CC
:104B90007F00000000FE0222DA060808F8898E88ED
:104BA0008888080000FF0810088740300F00408008
:104BB000403F000000083000FF20202020FF202080
:104BC000222C200004040201FF8040300E01061850
:104BD0002040800000020CC0007E42C24242C2421D
:104BE0007E00000002027F804020180700003F4046
:104BF00040407000000000000000000000000000C5
:104C00000000000000003636000000000000000038
:104C10000000000080908C848484F58684848484E1
:104C2000948C8000000202C2C20202FEFE828282D6
:104C3000828202004040407F7F40407F7F40404072
:104C400040404040203818EAEEACA8AFAFA8ACEE28
:104C5000EA28381800003E3E020202FFFF0212322C
:104C60003E1E000000007EFE929292929292929ED0
:104C70009EE0E0000888C8683E1E08080808FEFE9E
:104C800008080808203818EAEEACA8AFAFA8ACEEC8
:104C9000EA28381800003E3E020202FFFF021232EC
:104CA0003E1E000060F0080808F8F0008040300860
:104CB0000000000000000121110C0201001E212152
:104CC00021331E00060909E6F80C04020202020262
:104CD000041E0000000000071F30204040404040FC
:104CE000201000000000000000000000002F000065
:104CF00000000700070000147F147F1400242A7F9F
:104D00002A1200626408132300364955225000001D
:104D10000503000000001C224100000041221C008D
:104D20000014083E08140008083E0808000000A00F
:104D3000600000080808080800006060000000200B
:104D400010080402003E5149453E0000427F4000E9
:104D5000004261514946002141454B31001814126F
:104D60007F10002745454539003C4A49493000013C
:104D70007109050300364949493600064949291E8B
:104D800000003636000000005636000000081422ED
:104D900041000014141414140000412214080002ED
:104DA0000151090600324959513E007C1211127C12
:104DB000007F49494936003E41414122007F41413F
:104DC000221C007F49494941007F09090901003E31
:104DD0004149497A007F0808087F0000417F41006F
:104DE000002040413F01007F08142241007F4040E5
:104DF0004040007F020C027F007F0408107F003ECD
:104E00004141413E007F09090906003E4151215EB2
:104E1000007F091929460046494949310001017FAF
:104E20000101003F4040403F001F2040201F003F45
:104E30004038403F006314081463000708700807F7
:104E400000615149454300007F41410000552A550A
:104E50002A55000041417F00000402010204004085
:104E600040404040000001020400002054545478A7
:104E7000007F4844443800384444442000384444C7
:104E8000487F00385454541800087E090102001865
:104E9000A4A4A47C007F080404780000447D4000A2
:104EA000004080847D00007F102844000000417F86
:104EB0004000007C04180478007C08040478003862
:104EC0004444443800FC242424180018242418FCEA
:104ED000007C0804040800485454542000043F4453
:104EE0004020003C4040207C001C2040201C003C16
:104EF0004030403C004428102844001CA0A0A07C66
:104F0000004464544C44141414141414000000009D
:104F1000000000000000000000000000000000F899
:104F200000000000000000333000000000100C06FC
:104F3000100C0600000000000000000040C0784097
:104F4000C0784000043F04043F040400007088FC63
:104F500008300000001820FF211E0000F008F000BB
:104F6000E018000000211C031E211E0000F008882C
:104F7000700000001E2123241927211010160E0096
:104F8000000000000000000000000000000000E041
:104F90001804020000000007182040000002041856
:104FA000E00000000040201807000000404080F0B2
:104FB000804040000202010F01020200000000F0E8
:104FC000000000000101011F0101010000000000BC
:104FD0000000000080B07000000000000000000031
:104FE00000000000000101010101010100000000BA
:104FF0000000000000303000000000000000000051
:1050000080601804006018060100000000E010082D
:105010000810E000000F102020100F00001010F802
:10502000000000000020203F202000000070080841
:1050300008887000003028242221300000300888C1
:10504000884830000018202020110E000000C020E9
:1050500010F8000000070424243F240000F808880A
:10506000880808000019212020110E0000E0108897
:1050700088180000000F112020110E0000380808C9
:10508000C83808000000003F0000000000708808D9
:1050900008887000001C222121221C0000E010085A
:1050A0000810E0000000312222110F00000000C0B3
:1050B000C000000000000030300000000000008050
:1050C0000000000000008060000000000000804040
:1050D0002010080000010204081020004040404059
:1050E00040404000040404040404040000081020AC
:1050F00040800000002010080402010000704808F1
:105100000808F0000000003036010000C030C82858
:10511000E810E0000718272423140B000000C03813
:10512000E0000000203C23020227382008F888888D
:1051300088700000203F202020110E00C030080899
:1051400008083800071820202010080008F8080870
:105150000810E000203F202020100F0008F8888869
:10516000E8081000203F20202320180008F8888835
:10517000E8081000203F200003000000C0300808AD
:105180000838000007182020221E020008F8080036
:105190000008F808203F210101213F20000808F8FD
:1051A000080800000020203F202000000000080820
:1051B000F8080800C08080807F00000008F888C0E0
:1051C00028180800203F20012638200008F8080091
:1051D00000000000203F20202020300008F8F800C8
:1051E000F8F80800203F003F003F200008F830C0DA
:1051F0000008F808203F200007183F00E0100808CA
:105200000810E0000F10202020100F0008F80808F8
:105210000808F000203F210101010000E01008080B
:105220000810E0000F18242438504F0008F8888830
:1052300088887000203F2000030C30200070880810
:10524000080838000038202121221C00180808F81E
:10525000080818000000203F2000000008F808009F
:105260000008F808001F202020201F000878880070
:1052700000C83808000007380E010000F80800F8E0
:105280000008F800033C0700073C0300081868808A
:105290008068180820302C03032C30200838C80000
:1052A000C83808000000203F20000000100808084F
:1052B000C83808002038262120201800000000FEF1
:1052C000020202000000007F40404000000C30C09D
:1052D00000000000000000010638C00000020202C9
:1052E000FE000000004040407F000000000004027B
:1052F00002020400000000000000000000000000A6
:105300000000000080808080808080800002020495
:10531000000000000000000000000000000080808D
:10532000808000000019242222223F2008F80080FB
:1053300080000000003F112020110E0000000080BE
:1053400080800000000E112020201100000000804D
:105350008088F800000E112020103F20000080807F
:1053600080800000001F222222221300008080F093
:10537000888888180020203F2020000000008080BE
:1053800080808000006B94949493600008F8008003
:1053900080800000203F210000203F20008098985E
:1053A000000000000020203F2020000000000080BE
:1053B0009898000000C08080807F000008F80000FE
:1053C00080808000203F24022D302000000808F853
:1053D000000000000020203F20200000808080800E
:1053E00080808000203F20003F20003F80800080A0
:1053F00080800000203F210000203F2000008080AE
:1054000080800000001F202020201F00808000805E
:105410008000000080FFA12020110E00000000800D
:1054200080808000000E112020A0FF8080808000FE
:105430008080800020203F2120000100000080802B
:10544000808080000033242424241900008080E020
:10545000808000000000001F2020000080800000ED
:1054600000808000001F202020103F2080808000CE
:105470000080808000010E300806010080800080DE
:10548000008080800F300C030C300F000080800003
:10549000808080000020312E0E312000808080002E
:1054A0000080808080818E701806010000808080DE
:1054B000808080000021302C22213000000000007C
:1054C000807C020200000000003F4040000000001D
:1054D000FF00000000000000FF0000000002027C4E
:1054E000800000000040403F000000000006010175
:1054F00002020404000000000000000000000000A0
:10550000000000000000000000000000000000009B
:10551000000000000000000000000000000000008B
:10552000000000000000000000000000000000007B
:10553000000000000000000000000000F8FCE00097
:10554000000000000000000000000000000000005B
:10555000000000000000000000000000000000004B
:10556000000000000000000000000000000000003B
:10557000000000000000000000000000000000002B
:10558000000000000000000000000000000000001B
:10559000000000000000000000000000000000000B
:1055A00000000000000000000000000000000000FB
:1055B000000000F0F01010D85EC24ADA5ACACADA07
:1055C000CB5BCBDACA5A5A5A4AC25E501010F0006E
:1055D00000000000000000000000000000000000CB
:1055E00000000000000000000000000000000000BB
:1055F00000000000000000000000000000000000AB
:10560000000000000000000000000000000000009A
:10561000000000000000000000000000000000008A
:10562000000000000000000000000000000000007A
:1056300000000000000000FFFF0000AFAFAFAFAF01
:10564000AFAFAFAFAFAFAFAFAFAFAFAFAFAFAFAF6A
:105650000000FFFF0000000000000000000000004C
:10566000000000000000000000000000000000003A
:10567000000000000000000000000000000000002A
:10568000000000000000000000000000000000001A
:10569000000000000000000000000000000000000A
:1056A00000000000000000000000000000000000FA
:1056B0000000000000000000000000FFFF00007E6E
:1056C0005E7E7E7E7E7E7E7E7E5A7E7E7E7E7E7E3E
:1056D0007E7E5E7E0000FFFF0000000000000000F4
:1056E00000000000000000000000000000000000BA
:1056F00000000000000000000000000000000000AA
:105700000000000000000000000000000000000099
:1057100000000000808080808000404000407010C9
:105720001010101010101010105050507050F070D9
:1057300050705070505070F01070F050303030FF9A
:10574000FF0000F5F5F5F5F5F5F5F5F5F5F5F5F5E9
:10575000F5F5F5F5F5F5F5F50000FF3F3030305083
:10576000F07050F0F05070507050707070107010F9
:105770007010101010101010101010107040004019
:105780000000808080808000000000000000000099
:105790000000000000000000F9F9F9F9F9007FFFAE
:1057A0007F0000777600007B7B7B7B7B7B007B7BB5
:1057B0007B6B7B7B6B7B6B7B6B7B7B7B007B7B7BF4
:1057C000000000006B7B6B7B007B6B7B2ACFCECF16
:1057D000EFE0EFCFC0CF6B6B6B7B007B7B6B02008E
:1057E0000000007B7B7B6B7B7B6B7B7B7B6B7B7BAA
:1057F0007B007B007B497B7B7B7B7B7B000077771F
:10580000007E7FFF7E00F9F9F9F9F9000000000041
:105810000000000000000000000000000D0D0D0D54
:105820000D0C0C0E0C0C0C0C0C0C0C0F8F8FFFFFC6
:10583000EFFC2F0F0F0D0F0F0F0F0F0F0D0F0F0F8F
:105840000C0F0F0F0C8CDC7C698989C9C889090D84
:105850000D0B0F0B0B0B0B0F0B0B0D0D0909080993
:1058600009090D9CFCFCCCCF0F0F0D0F0F0F0F0F74
:105870000F0D0F0F0F0C0F0C0F0F8FEFFFFFFB7FA4
:10588000F8CC8C0C0C0C0C0E0C0C0D0D0D0D0D0031
:105890000000000000000000000000000000000008
:1058A00000000000000000000000000000000002F6
:1058B000073E7F773F0D1818181000000000000009
:1058C000000000000000000000013F3B0E0D0F072C
:1058D000050D0C00000000000000000000000000AA
:1058E0000000000030363F1F0B091918302000005F
:1058F000000000000000000000000000000607118A
:105900003B6F6F7F0D0800000000000000000000EA
:10591000000000000000000000000000E059000846
:10592000E4590008E4590008E4590008E459000863
:10593000E4590008E4590008E4590008E459000853
:10594000E4590008FFFFFFFFFFFFFFFFFFFFFFFF1E
:10595000FFFF0000DDDDDDDDDCBBBBDDDDDDDDDD32
:10596000DDDDDDDD98888888888888887777777797
:105970007788888885555556666666666666666663
:10598000666888888333333222222222222222220E
:105990002228888D7B224D223A22757064617465BD
:1059A000222C224944223A222573222C2256223AC2
:1059B0007B222573223A22252E3266222C22257341
:1059C000223A22252E3266222C222573223A2225C3
:1059D00064222C222573223A222564227D7D0A002E
:1059E0002E00000000000000085A000800000020FF
:1059F0006C00000074280008745A00086C00002035
:105A0000040A00008428000800A24A0400000000E4
:105A1000000000000102030406070809000000005E
:105A20000102030401020304060708090204060830
:105A30000000000000000000000000000000000066
:105A400000000000000000003031323334353637BA
:105A50003839000000000000000000002528000880
:105A6000C9270008154200080000000000000000DF
:045A70000000000032
:04000005080000ED02
:00000001FF
